:1000000007C1000033C1000031C100002FC1000052
:100010002DC100002BC1000029C1000027C1000034
:1000200025C1000023C1000021C100001FC1000044
:100030001DC100001BC1000019C1000017C1000054
:1000400015C1000013C1000011C100000FC1000064
:100050000DC100000BC1000009C10000F7C1000084
:1000600005C1000023C5000057C50000FFC0000007
:10007000FDC00000FBC00000F9C00000F7C0000098
:10008000F5C00000F3C00000F1C00000EFC00000A8
:10009000EDC00000EBC00000E9C00000E7C00000B8
:1000A000E5C00000E3C00000E1C00000DFC00000C8
:1000B000DDC00000DBC00000D9C00000D7C00000D8
:1000C000D5C00000D3C00000D1C00000CFC00000E8
:1000D000CDC00000CBC00000C9C00000C7C00000F8
:1000E000C5C000003E034103300334033A037803E4
:1000F000450349034F03530357035D03610365033E
:1001000078036B036F03730300000A0B02090C0DE5
:100110000E080703040100000000000000000000BA
:1001200000000000000000000000000000000000CF
:10013000000000001211100000000000000000008C
:1001400000000000000000000000000000000102AC
:1001500010202008081020401020408002010201D9
:100160000804020101020408102040808040201091
:1001700008040201800402018040201008040201EA
:100180000804020101020408102040800102040852
:10019000102040800505050507050808080802022B
:1001A00002020A0A08080404040401010101010111
:1001B00001010303030303030303040707070C0CF4
:1001C0000C0C0C0C0C0C02020202060606060606BB
:1001D00006060B0B0B0B0B0B0B0B00002200250074
:1001E00028002B002E003100340002010000050120
:1001F00008010B0100002100240027002A002D0027
:100200003000330001010000040107010A01BE05AE
:1002100011241FBECFEFD1E2DEBFCDBF00E00CBF87
:1002200012E0A0E0B2E0E6ECFDE000E00BBF02C0AF
:1002300007900D92AA37B107D9F723E0AAE7B2E0F9
:1002400001C01D92A735B207E1F712E0C0E1D2E08C
:1002500000E005C022970109FE010BBFAED5CE30EC
:10026000D10780E00807B1F7CDD4ABC5C9CE40EDCA
:1002700057E060E070E08AE792E057D020E032EC8F
:1002800041E050E06AEB72E08AE792E060D08AE7F2
:1002900092E049D060E072E08091AB029091AC02B4
:1002A000F9D46AE070E080E090E049D141E060E09C
:1002B0008AE792E0B1D061E08DE01BC261E08DE0A1
:1002C00051D268EE73E080E090E039D160E08DE0DB
:1002D00049D268EE73E080E090E031C10F931F9344
:1002E000CF93DF93EC01662351F0FAD069837A83D0
:1002F0008B839C83DF91CF911F910F910895F0D054
:1003000009811A812B813C81601B710B820B930B3D
:10031000623371058105910540F763E070E080E08C
:1003200090E00DD1ECCF60E0D9CFFC0113AA14AA64
:1003300015AA16AA11821282138214824115510540
:100340006105710519F0CB01BA01F9C00895FB01EF
:10035000BA01A901DC01D296FC93EE93D19726E075
:10036000CF0144C31F93CF93DF93EC01162F62E1BB
:1003700072E089A99AA98ED44AE050E0612F89A938
:100380009AA9ECD469E172E089A99AA983D462E3BD
:1003900070E080E090E0DF91CF911F91D0C01F937B
:1003A000CF93DF93EC01162F8D81882381F189A9EA
:1003B0009AA9DC01ED91FC910480F581E02D19955D
:1003C000892BA9F307C02637310511F128353105EE
:1003D00009F41D8289A99AA9DC01ED91FC910480A0
:1003E000F581E02D1995181619068CF489A99AA99A
:1003F000DC01ED91FC910680F781E02D19959C01BF
:10040000332723363105F9F6612FCE01ABDF83E6C2
:10041000DF91CF911F9108950F931F93CF93DF9397
:100420001F92CDB7DEB78C01662341F081E0F80161
:10043000858360E0C8014983B2DF4981F8014583C3
:100440000F90DF91CF911F910F9108951F920F92FE
:100450000FB60F9211242F933F938F939F93AF93D7
:10046000BF938091B2029091B302A091B402B09177
:10047000B5023091B10223E0230F2D3720F401960D
:10048000A11DB11D05C026E8230F0296A11DB11DB7
:100490002093B1028093B2029093B302A093B4026E
:1004A000B093B5028091B6029091B702A091B802C4
:1004B000B091B9020196A11DB11D8093B60290932F
:1004C000B702A093B802B093B902BF91AF919F91C8
:1004D0008F913F912F910F900FBE0F901F90189505
:1004E0002FB7F8946091B2027091B3028091B40278
:1004F0009091B5022FBF08953FB7F8948091B6024E
:100500009091B702A091B802B091B90226B5A89B0C
:1005100005C02F3F19F00196A11DB11D3FBF6627F1
:10052000782F892F9A2F620F711D811D911D42E036
:10053000660F771F881F991F4A95D1F70895CF92AC
:10054000DF92EF92FF92CF93DF936B017C01D4DFB8
:10055000EB01C114D104E104F10479F005D4CCDF3E
:100560006C1B7D0B683E7340A0F381E0C81AD10874
:10057000E108F108C851DC4FECCFDF91CF91FF903B
:10058000EF90DF90CF900895789484B5826084BD19
:1005900084B5816084BD85B5826085BD85B5816087
:1005A00085BDEEE6F0E0808181608083E1E8F0E0E7
:1005B0001082808182608083808181608083E0E816
:1005C000F0E0808181608083E1EBF0E080818460F5
:1005D0008083E0EBF0E0808181608083E1E9F0E0FE
:1005E000808182608083808181608083E0E9F0E0A7
:1005F000808181608083E1EAF0E080818260808395
:10060000808181608083E0EAF0E080818160808386
:10061000E1E2F1E08081826080838081816080837B
:10062000E0E2F1E0808181608083EAE7F0E08081B0
:100630008460808380818260808380818160808308
:100640008081806880831092C100089590E0FC0151
:100650003197E231F10508F04BC0EE58FF4FA7C3C8
:10066000809180008F7703C0809180008F7D809380
:100670008000089580918000877FF9CF84B58F77BF
:1006800002C084B58F7D84BD08958091B0008F77BE
:1006900003C08091B0008F7D8093B0000895809159
:1006A00090008F7707C0809190008F7D03C080916C
:1006B0009000877F8093900008958091A0008F77AD
:1006C00007C08091A0008F7D03C08091A000877F2C
:1006D0008093A0000895809120018F7707C08091BA
:1006E00020018F7D03C080912001877F80932001AE
:1006F0000895CF93DF9390E0FC01E25BFE4F2491DD
:10070000FC01EC56FE4F8491882349F190E0880F5C
:10071000991FFC01EC50FE4FA591B49186529E4F5B
:10072000FC01C591D4919FB7611108C0F8948C91D8
:10073000209582238C93888182230AC0623051F4F1
:10074000F8948C91322F309583238C938881822B5F
:10075000888304C0F8948C91822B8C939FBFDF9187
:10076000CF9108950F931F93CF93DF931F92CDB72F
:10077000DEB7282F30E0F901E85FFE4F8491F901E0
:10078000E25BFE4F1491F901EC56FE4F04910023F9
:10079000C1F0882319F0698359DF6981E02FF0E007
:1007A000EE0FFF1FE652FE4FA591B4919FB7F8944C
:1007B0008C91611103C01095812301C0812B8C9312
:1007C0009FBF0F90DF91CF911F910F910895FC0172
:1007D000818D228D90E0805C9F4F821B91098F73E9
:1007E00099270895FC01918D828D981731F0828DA3
:1007F000E80FF11D858D90E008958FEF9FEF08952C
:10080000FC01918D828D981761F0828DDF01A80F18
:10081000B11D5D968C91928D9F5F9F73928F90E03A
:1008200008958FEF9FEF089585EB95E0892B39F0C0
:1008300080E090E0892B19F098D1811125C080E0EB
:1008400090E0892B41F080E090E0892B21F00E941C
:10085000000081111CC080E090E0892B41F080E015
:1008600090E0892B21F00E940000811113C080E0EC
:1008700090E0892BA1F080E090E0892B81F00E942C
:10088000000081110AC008950E940000D8CF0E9484
:100890000000E1CF0E940000EACF0C940000089510
:1008A000FC01848DDF01A80FB11DA35ABF4F2C910D
:1008B000848D90E001968F739927848FA689B789DC
:1008C0002C93A089B1898C9180648C93938D848DB5
:1008D000981306C00288F389E02D80818F7D808384
:1008E0000895CF93DF93EC01888D8823C1F0EA89C6
:1008F000FB89808185FD05C0A889B9898C9186FD19
:100900000EC00FB607FCF5CF808185FFF2CFA88916
:10091000B9898C9185FFEDCFCE01C2DFE8CFDF91A1
:10092000CF910895CF92DF92FF920F931F93CF93B1
:10093000DF931F92CDB7DEB76C0181E0D6015896E8
:100940008C9358975B969C915B975C968C915C9787
:10095000981307C05096ED91FC915197808185FDC9
:100960002DC0F601038D10E00F5F1F4F0F7311278D
:10097000F02EF601848DF81210C00FB607FCF9CFE7
:10098000D6015096ED91FC915197808185FFF1CF72
:10099000C601698385DF6981ECCF838DE80FF11D86
:1009A000E35AFF4F6083D6015B960C935B97529698
:1009B000ED91FC915397808180620CC0D6015696D0
:1009C000ED91FC91579760835096ED91FC91519772
:1009D00080818064808381E090E00F90DF91CF91EF
:1009E0001F910F91FF90DF90CF900895BF92CF920B
:1009F000DF92EF92FF92CF93DF93EC016A017B01CC
:100A0000B22EE889F98982E08083411581EE58078A
:100A10006105710599F060E079E08DE390E0A70150
:100A20009601A3D1215031094109510956954795A5
:100A300037952795211580E1380790F0E889F989E5
:100A4000108260E874E88EE190E0A70196018DD1F4
:100A500021503109410951095695479537952795F8
:100A6000EC85FD853083EE85FF852083188EEC892B
:100A7000FD89B082EA89FB89808180618083EA896F
:100A8000FB89808188608083EA89FB898081806816
:100A90008083EA89FB8980818F7D8083DF91CF917C
:100AA000FF90EF90DF90CF90BF9008951F920F922C
:100AB0000FB60F9211240BB60F922F938F939F9323
:100AC000EF93FF93E091CA02F091CB028081E09115
:100AD000D002F091D10282FD12C090818091D302A8
:100AE0008F5F8F732091D402821751F0E091D3026F
:100AF000F0E0E654FD4F958F8093D30201C08081D2
:100B0000FF91EF919F918F912F910F900BBE0F90BE
:100B10000FBE0F901F9018951F920F920FB60F9255
:100B200011240BB60F922F933F934F935F936F93C4
:100B30007F938F939F93AF93BF93EF93FF938AEB32
:100B400092E0AEDEFF91EF91BF91AF919F918F91B7
:100B50007F916F915F914F913F912F910F900BBEBD
:100B60000F900FBE0F901F9018958AEB92E02FDE2A
:100B700021E0892B09F420E0822F08951092BD0214
:100B80001092BC0288EE93E0A0E0B0E08093BE0239
:100B90009093BF02A093C002B093C1028EE692E090
:100BA0009093BB028093BA0285EC90E09093C702C9
:100BB0008093C60284EC90E09093C9028093C802AF
:100BC00080EC90E09093CB028093CA0281EC90E09D
:100BD0009093CD028093CC0282EC90E09093CF0270
:100BE0008093CE0286EC90E09093D1028093D00265
:100BF0001092D3021092D4021092D5021092D60213
:100C000008950895C1DCFDDF32DBC4E1D4E056DB9A
:100C10002097E9F309DEFBCFCF92DF92EF92FF92AC
:100C20000F931F93CF93DF937C016A01EB0100E0E8
:100C300010E00C151D0571F06991D701ED91FC9143
:100C40000190F081E02DC7011995892B19F00F5FF4
:100C50001F4FEFCFC801DF91CF911F910F91FF90F0
:100C6000EF90DF90CF9008956115710581F0DB0161
:100C70000D900020E9F7AD0141505109461B570B7B
:100C8000DC01ED91FC910280F381E02D199480E06C
:100C900090E00895E9CF8F929F92AF92BF92CF924A
:100CA000DF92EF92FF920F931F93CF93DF93CDB715
:100CB000DEB7A1970FB6F894DEBF0FBECDBF7C01A3
:100CC000C42EE52FCB01D22E19A221E02D1510F054
:100CD0002AE0D22E8E010F5D1F4F8D2C912CA12C5E
:100CE000B12C6C2D7E2FA50194013FD08C2DD29E6E
:100CF00080191124015011098A3014F4805D01C05B
:100D0000895CF8018083211531054105510521F0E9
:100D1000C22EE32FCA01E5CFB801C701A5DFA19616
:100D20000FB6F894DEBF0FBECDBFDF91CF911F91FC
:100D30000F91FF90EF90DF90CF90BF90AF909F907A
:100D40008F9008952115310541F4DC01ED91FC915E
:100D50000190F081E02D642F19949DCF9A01462FC8
:100D600050E060E070E0EECF0895A1E21A2EAA1BD9
:100D7000BB1BFD010DC0AA1FBB1FEE1FFF1FA2174B
:100D8000B307E407F50720F0A21BB30BE40BF50B48
:100D9000661F771F881F991F1A9469F760957095D1
:100DA000809590959B01AC01BD01CF010895EE0F98
:100DB000FF1F0590F491E02D19940790F691E02D16
:060DC0001994F894FFCF26
:100DC600564D4450565F317C315F564D4450560D5A
:100DD6000A00564D4450435F005F564D4450430D44
:100DE6000A004572726F723A20417474656D7074B0
:100DF60020746F20736574206120726561642D6FA5
:100E06006E6C79207661726961626C65206F722002
:100E1600646174612074797065206E6F74207375D7
:100E260070706F727465640D0A0000000000920411
:0A0E36000C06E7030004F203710448
:00000001FF
